:020000040800F2
:10000000F044002081020008914D0008934D000843
:10001000954D0008974D0008994D0008000000001C
:100020000000000000000000000000009D4D0008DE
:100030009B4D0008000000009F4D0008A14D0008E6
:10004000B34D0008B54D0008B74D0008B94D000884
:10005000BF4E0008C14E0008514F000883500008F1
:10006000ED500008FF5000081151000835510008FC
:1000700037510008395100083B5100083D51000834
:100080003F51000841510008435100084551000804
:1000900047510008495100084B5100084D510008D4
:1000A0000152000803520008355200083752000878
:1000B00043520008A55200081D5400086D54000862
:1000C0006F540008715400087354000875540008F8
:1000D00077540008795400089F540008C954000858
:1000E000FB5400086B5500086D55000800F002F83D
:1000F00000F064F80AA090E8000C82448344AAF15E
:100100000107DA4501D100F059F8AFF2090EBAE85B
:100110000F0013F0010F18BFFB1A43F0010318473B
:10012000381B0100581B01000A444FF0000C10F866
:10013000013B13F0070408BF10F8014B1D1108BF65
:1001400010F8015B641E05D010F8016B641E01F805
:10015000016BF9D113F0080F1EBF10F8014BAD1C55
:100160000C1B09D16D1E58BF01F801CBFAD505E073
:1001700014F8016B01F8016B6D1EF9D59142D6D3CD
:10018000704700000023002400250026103A28BFF5
:1001900078C1FBD8520728BF30C148BF0B607047F9
:1001A000642910F07584732910F06D860020704763
:1001B0001FB510F0BEFC1FBD10B510BD10F067FEDE
:1001C0001146FFF7F5FF03F0FDF810F085FE03B4CC
:1001D000FFF7F2FF03BC02F098FF00000B49D1F8D3
:1001E00000C04A685CF8043B1068184442F8040BED
:1001F0008C4528BFA1F1DC0C8A4228BFA1F1DC02AA
:10020000C1F800C04A6020F000407047843E0020E2
:1002100030BF704720BF704740BF7047BFF36F8F3C
:100220007047BFF34F8F7047BFF35F8F704701DF99
:100230007047EFF31480704780F31488BFF36F8F1B
:100240007047EFF30980704780F309887047EFF338
:100250000880704780F30888704772B6704762B6AE
:10026000704771B6704761B6704780F31188704768
:10027000EFF31280704740BA704700BA7047000031
:100280000348004703480449044A054B70470000EF
:10029000ED000008F03E0020F0440020F040002077
:1002A000F040002010B5012001F032F9002001F0EB
:1002B0002FF910BD2349086070472249091F0860C3
:1002C00070472049843108607047014600201E4A6B
:1002D00010884FF67F42104008431B4A1080704739
:1002E00001460020184A10884FF6807210400843DB
:1002F000154A10807047154A0244A2F8001C704746
:10030000014612480844B0F8000C70470D489C3074
:100310000068C0B270470C480830008840F0010007
:1003200009490831088070470648A0300068C0B20B
:10033000704705480830008840F002000249083143
:100340000880704704860D422C6C0040006000401D
:1003500000204C490860091D0860091D0860091D3E
:10036000086049484749143108607047817900297D
:1003700046D04449096802689143424A1160111D00
:100380000968026891433F4A121D116001793F4A92
:100390001144D1F800140268114302793B4B1A440E
:1003A000C2F8001437490831096802689143354A98
:1003B00008321160111D096802689143314A0C32FC
:1003C0001160417910290ED1111F0968026811438B
:1003D0002C4A08321160111D096802681143294A2C
:1003E0000C32116018E04179284A1144D1F8001408
:1003F000026811434279254B1A44C2F800140BE0FD
:100400000179224A1144D1F800140268914302791B
:100410001E4B1A44C2F8001470470021016001719C
:100420000C21417100218171704716491031096812
:100430000143144A10321160704701460020114AEE
:10044000143212680A400AB1012000E0002070470F
:100450000C49143108607047014600200022094B06
:100460001B6803EA0102074B14331B680B4013B1EE
:100470000AB1012000E000207047024914310860F1
:100480007047000000040140FFFF0700000001402A
:10049000FD49096801F03801FB4A116011460968FD
:1004A000014311607047F849096821F00801F64AD4
:1004B000116011460968014311607047F2490968EB
:1004C00021F01001F04A11601146096801431160E2
:1004D0007047EE48EC494860ED4848607047EA488C
:1004E000006940F08000E849086170470420E6494F
:1004F000C96801F0010109B101200EE0E249C968B3
:1005000001F0040109B1022007E0DF49C96801F0E8
:10051000100109B1032000E00420704708B5002055
:100520000090FF20009002E00098401E009000988C
:100530000028F9D108BD70B504460425FFF7D6FFA1
:10054000054605E0FFF7EAFFFFF7D0FF0546641E0A
:10055000012D01D1002CF5D104B90525284670BD27
:1005600070B50546042440F6FF70FFF7E4FF04462B
:10057000042C19D1C448006940F00200C249086146
:1005800008464561006940F04000086140F6FF7090
:10059000FFF7D1FF0446012C06D0BB48006941F6A5
:1005A000FD710840B8490861204670BD10B50424AB
:1005B00040F6FF70FFF7BFFF0446042C18D1B24885
:1005C000006940F00400B04908610846006940F045
:1005D0004000086140F6FF70FFF7ADFF0446012CB4
:1005E00006D0A948006941F6FB710840A649086198
:1005F000204610BD10B5042440F6FF70FFF79BFFA6
:100600000446042C3BD1A1489F498860A0488860DB
:100610000846006940F0200008610846006940F083
:100620004000086140F6FF70FFF785FF0446042C88
:100630001CD19548006941F6DF7108409249086174
:100640000846006940F010000861A5209149088023
:100650000F20FFF770FF0446012C10D08A48006974
:1006600041F6EF7108408849086108E0012C06D086
:100670008548006941F6EF710840834908612046CA
:1006800010BD70B505460E4604240F20FFF753FF3A
:100690000446042C25D17C48006940F001007A49C9
:1006A00008612E800F20FFF746FF0446042C0FD16F
:1006B000300C68800F20FFF73EFF0446012C10D05D
:1006C0007148006941F6FE7108406F49086108E011
:1006D000012C06D06C48006941F6FE7108406A4959
:1006E0000861204670BD70B505460E4604240F20F3
:1006F000FFF721FF0446042C13D16348006940F042
:100700000100614908612E800F20FFF714FF0446A5
:10071000012C06D05C48006941F6FE7108405A4938
:100720000861204670BD70B505460E4604240F20B2
:10073000FFF701FF0446042C17D154485249886042
:10074000534888600846006940F0100008612E8018
:100750000F20FFF7F0FE0446012C06D04A4800693E
:1007600041F6EF71084048490861204670BD2DE907
:10077000F04704464FF6FF763746B046B1460425AB
:10078000E443E6B2C4F30727C4F307484FEA146909
:100790000F20FFF7D0FE0546042D40D13B483A49D3
:1007A00088603B4888600846006940F01000086196
:1007B000FF2E06D03748083006800F20FFF7BBFE1B
:1007C0000546042D08D1FF2F06D032480A30078095
:1007D0000F20FFF7B0FE0546042D0AD1B8F1FF0F38
:1007E00007D02C480C30A0F800800F20FFF7A3FEA4
:1007F0000546042D0AD1B9F1FF0F07D025480E3068
:10080000A0F800900F20FFF796FE0546012D06D0B8
:100810001D48006941F6EF7108401B4908612846F0
:10082000BDE8F08770B50546042440F6FF70FFF779
:1008300082FE0446042C4AD11448134988601448A7
:1008400088600846006940F0200008610846006999
:1008500040F04000086140F6FF70FFF76CFE044670
:10086000042C2BD10848006941F6DF710840064985
:1008700008610846006940F01000086165B1002079
:10088000044908800BE00000002002402301674576
:10089000AB89EFCD00F8FF1FA5204549088040F641
:1008A000FF70FFF748FE0446012C10D04148006954
:1008B00041F6EF7108403F49086108E0012C06D07D
:1008C0003C48006941F6DF7108403A49086120461A
:1008D00070BD2DE9F04107460D4616460424364802
:1008E00034498860354888600F20FFF724FE0446AD
:1008F000042C1AD12F48006940F010002D490861DE
:1009000047EA0500304340F0F8002949891C088077
:100910000F20FFF710FE0446012C06D02548006981
:1009200041F6EF710840234908612046BDE8F08197
:100930002048C069800870471E48006A7047002040
:100940001C49C96901F0020109B1012000E0002041
:10095000704700201749096801F0200109B1012002
:1009600000E00020704729B1124A12690243114B7E
:100970001A6104E00F4A126982430E4B1A617047F4
:1009800001460020012908D10A4AD26902F0010279
:100990000AB1012008E0002006E0064AD2680A40B9
:1009A0000AB1012000E0002070470249C86070478A
:1009B00000F8FF1F0020024023016745AB89EFCDFF
:1009C00010B50446C549601A8C422FD009DCC448D2
:1009D000204480B1B0F5806F16D0B0F5006F4AD1D9
:1009E0001BE0B0F5806F2AD0B0F5006F30D0B0F5C5
:1009F000406F40D135E00121042000F06FFD00215F
:100A0000042000F06BFD37E00121082000F066FDB6
:100A10000021082000F062FD2EE00121102000F0EE
:100A20005DFD0021102000F059FD25E0012120206E
:100A300000F054FD0021202000F050FD1CE00121B9
:100A4000402000F04BFD0021402000F047FD13E066
:100A50000121802000F042FD0021802000F03EFDB9
:100A60000AE00121080200F039FD00214FF48070F6
:100A700000F034FD00E000BF00BF10BD10B5012143
:100A8000084600F02BFD0021012000F027FD10BDDD
:100A90002DE9F04102460025002600200023002415
:100AA000002791F803C00CF00F0591F803C00CF07B
:100AB000100CBCF1000F03D091F802C04CEA050500
:100AC00091F800C0BCF1000F30D0146800202AE07B
:100AD0004FF0010C0CFA00F3B1F800C00CEA030669
:100AE0009E421FD183004FF00F0C0CFA03F7BC435A
:100AF00005FA03FC4CEA040491F803C0BCF1280F8A
:100B000005D14FF0010C0CFA00FCC2F814C091F8AA
:100B100003C0BCF1480F05D14FF0010C0CFA00FCEA
:100B2000C2F810C0401C0828D2D31460B1F800C02D
:100B3000BCF1FF0F34DD546800202EE000F1080CFA
:100B40004FF0010808FA0CF3B1F800C00CEA0306F4
:100B50009E4221D183004FF00F0C0CFA03F7BC43E7
:100B600005FA03FC4CEA040491F803C0BCF1280F19
:100B700005D100F1080C08FA0CF8C2F8148091F8BD
:100B800003C0BCF1480F07D100F1080C4FF0010879
:100B900008FA0CF8C2F81080401C0828CED3546024
:100BA000BDE8F0814FF6FF710180022181700421C0
:100BB000C17070470246002093680B400BB10120C2
:100BC00000E0002070470146886880B27047024606
:100BD0000020D3680B400BB1012000E000207047DB
:100BE0000146C86880B27047016170474161704733
:100BF0000AB1016100E041617047C16070474FF484
:100C000080320A43826181618261826982697047B0
:100C100002460020334B18684FF68073184040EAB4
:100C2000021008432F4B186070472F49C861704766
:100C3000F0B50A460023002400210025294E7168E2
:100C4000C0F3034583B200F44016B6F5401F08D147
:100C500021F07061234E766826F07066214F7E6029
:100C600012E000F48016B6F5801F06D1032606FABE
:100C700005F4A14341F0706106E0460D360103FA28
:100C800006F6B14341F0706122B1460D360103FA18
:100C900006F63143134E7160F0BD30B500228B076C
:100CA0001C0F0F2303FA04F20E4B08338C1053F879
:100CB000243093430B4C08348D1044F825302346E0
:100CC0008C1053F824308C07240F00FA04F42343CB
:100CD000044C08348D1044F8253030BD0014014018
:100CE00000F8FEBF00000140000020420E490860ED
:100CF00070470D49486070470B49886070474AF655
:100D0000AA200949086070474CF6CC4006490860A3
:100D1000704701460020044AD2680A400AB1012007
:100D200000E0002070470000003000400020411E1D
:100D3000ED4A11600A09EC498039C1F88420411E4E
:100D40004FF0E022C2F880120A09E8490A6000BFA9
:100D500004E00022E64941F82020401C0F28F8D387
:100D6000704700204FF02061E24A11600021121DFF
:100D70001160E149121D11600021121D1160121D48
:100D8000116000BF05E00022DA49143141F820204B
:100D9000401C0328F7D30021D64A20321160491E97
:100DA000121D1160121D1160121D11607047D24991
:100DB0000143D04A083211607047F0B5002100228B
:100DC000002300250F24C678002E35D0C94E0836E2
:100DD000366806F4E066C6F5E066310AC1F104053E
:100DE000CC40467806FA05F1867826403143090161
:100DF0000678B607F60EB140BD4E0778BF1056F81C
:100E000027200678B607F70EFF2606FA07F39A435F
:100E100019400A43B64E0778BF1046F827200678D7
:100E200006F01F070126BE4007787F11BF0007F1BB
:100E3000E027C7F800610BE0067806F01F070126DF
:100E4000BE40A94F90F800C04FEA6C1C47F82C60D8
:100E5000F0BD0021017041708170C170704710B504
:100E6000FFF7FBF910BD10B5FFF7F9F910BD10B58C
:100E7000FFF7F7F910BD10B5FFF7F5F910BD10B584
:100E800004462001FFF7F1F910BD10B5FFF7F0F9A6
:100E900010BD98480068C0F30930704710B501468E
:100EA0000020002201F01F04012303FA04F28E4BFC
:100EB00080334C1153F824301340934201D1012068
:100EC00000E0002010BD8D490860704700F01F024F
:100ED00001219140854A121F431142F823107047A7
:100EE00084480068C0F30900704710B5014600202F
:100EF000002201F01F04012303FA04F27B4B7C3330
:100F00004C1153F824301340934201D1012000E0EA
:100F1000002010BD7748001F00687047784A0A40DB
:100F20000243744B1B1D1A6070477348001D7149C2
:100F30000831086070477048401C6E4908310860ED
:100F4000704739B16B4A0C3212680243694B0C335B
:100F50001A6006E0674A0C3212688243654B0C3314
:100F60001A60704710B5002200F01F04012303FA35
:100F700004F239B15F4B20331B6813435D4C2034BE
:100F8000236006E05B4B20331B689343594C2034AD
:100F9000236010BDF0B503460C4615460020FF2225
:100FA00000260021534F08373F6807F4E067C7F574
:100FB000E067390AC1F10400CA4004FA00F105EA09
:100FC00002073943090103F0C0008009C3F301227D
:100FD000D700B9404FEAC20CFF2707FA0CF6454F7D
:100FE000143757F82070B743DFF808C10CF1140C20
:100FF0004CF82070674657F820700F434CF820706B
:10100000F0BD10B50246002000230021910A01F036
:101010000F01012404FA01F1364C2034246804EA5B
:1010200001038B4201D1012000E0002010BD00210E
:1010300000F01F012F4A126801238B401A432D4BE9
:101040001A60704710B5002100F01F01294A12688C
:101050004B1E01249C402243264B1A6010BD10B544
:101060000246002000230021C2F38331012404FA48
:1010700001F1204C2034246804EA01038B4201D1A1
:10108000012000E0002010BD30B501460020002204
:101090000023C1F38142C1F301531AB9154C28341E
:1010A000206811E0012A0CD1124C24342468DD00A0
:1010B00024FA05F0022B02D000F00F0004E0C0B2C9
:1010C00002E00C4C2C34206830BD01460020002288
:1010D000C1F380521AB9074B3033186802E0054B50
:1010E000343318687047000080E100E084E200E0DB
:1010F00000E400E004ED00E00000FA0500EF00E08D
:1011000080FFFF1F10B50121080700F0F4F900214E
:101110004FF0805000F0EFF910BD28490862704789
:1011200026490861704701460020254A106820F0D2
:10113000E0000843106070472049A0310860704704
:1011400070B505460E4600241D48046824F00304CB
:101150002C4304601B48006840F0040019490860F3
:10116000012E02D1FFF754F801E0FFF753F870BDEC
:1011700010B51348006840F00400114908600846A3
:10118000006840F0020008600E48006840F004006B
:101190000C490860FFF73CF810BD01460020084AE2
:1011A00052680A400AB1012000E00020704704495B
:1011B000096841EA8001024A1160704700000E424E
:1011C0000070004010ED00E0E048006840F00100D1
:1011D000DE49086008464068DD490840DB49486050
:1011E00008460068DB490840D8490860084600689E
:1011F00020F4802008600846406820F4FE00486023
:10120000002088607047D149096821F48031CF4AB5
:1012100011601146096821F480211160B0F5803F0A
:1012200003D0B0F5802F0ED106E0C849096841F41B
:101230008031C64A116007E0C449096841F4A02121
:10124000C24A116000E000BF00BF704710B5014600
:101250000022002300204A11012A02D1BB4C23683E
:1012600006E0022A02D1B94C236A01E0B74C636A56
:1012700001F01F02012494401C400CB1012000E049
:10128000002010BD10B5002400BF3120FFF7DEFFA5
:10129000B1490870B1480068401CB0490860AE48C8
:1012A000007828B90846006840F2FF118842ECD166
:1012B0003120FFF7CBFF08B1012400E000242046D5
:1012C00010BD01460020A14A106820F0F80040EA55
:1012D000C10010607047A2490860704702460020B4
:1012E0009A4B586820F47C1042EA01031843974B4C
:1012F000586070479A490866704701460020934A33
:10130000506820F003000843506070478F484068E1
:1013100000F00C007047014600208C4A506820F015
:10132000F00008435060704701460020874A50682B
:1013300020F4E06008435060704701460020834A73
:10134000506820F4605040EAC1005060704729B1F5
:101350007E4A527A02437D4B5A7204E07B4A527AAB
:1013600082437A4B5A7270477D49D8310860704782
:1013700001460020754A506820F440400843506000
:1013800070470021714A20321170704A82F8201093
:10139000012802D004280AD104E001216B4A20323E
:1013A000117005E00521694A2032117000E000BF8C
:1013B00000BF70476B49086070476449096A014380
:1013C000624A11627047674944390860704730B516
:1013D00000210022002400235C4D6D6805F00C0103
:1013E00021B1042905D0082923D105E05E4D05600F
:1013F00022E05D4D05601FE0544D6D6805F47012EC
:10140000022505EB9242514D6D6805F480341CB9FC
:10141000564D554305600BE04C4D6D6805F40035A5
:101420001DB1524D5543056002E04F4D55430560D7
:1014300002E04D4D056000BF00BF444D6D6805F0F2
:10144000F00109094A4D6B5C0568DD4045603F4D80
:101450006D6805F4E061090A454D6B5C4568DD4047
:1014600085603A4D6D6805F46051C90A404D6B5C6A
:101470004568DD40C560354D6D6805F44041890B18
:101480003C4D6B5CC568B5FBF3F5056130BD29B11A
:101490002E4A526902432D4B5A6104E02B4A52698D
:1014A00082432A4B5A61704729B1284A9269024304
:1014B000264B9A6104E0254A92698243234B9A6144
:1014C000704729B1214AD2690243204BDA6104E016
:1014D0001E4AD26982431D4BDA61704729B11B4A0B
:1014E000D2680243194BDA6004E0184AD26882439A
:1014F000164BDA60704729B1144A12690243134B44
:101500001A6104E0114A12698243104B1A61704754
:1015100014494039086070471149C86470470B4945
:10152000C87170470948406A40F0807007494862B6
:10153000704701460020054A92680A400AB101201E
:1015400000E0002070470149887270470010024097
:101550000000FFF8FFFFF6FE00000020040000205E
:10156000000042428004424200127A0000093D001D
:10157000441901085419010829B1504A128802433C
:101580004E4B1A8004E04D4A128882434B4B1A801E
:1015900070474A48001D008840F010004749091D67
:1015A000088070474548001D00884FF6EF710840DD
:1015B0004249091D08807047002140481C300188BD
:1015C000001F008841EA0040704700B50246FFF75F
:1015D000E0FF100C394918310880091D0A80FFF717
:1015E000E1FF00BD00B50246FFF7D3FFC2F30340A1
:1015F000324908310880091D0A80FFF7D3FF00BD7A
:1016000000B50246FFF7C5FF100C2C4920310880B9
:10161000091D0A80FFF7C6FF00BD002027491031D1
:1016200009880907080B25491431098808437047C0
:1016300000BF2248001D008800F020000028F8D0DC
:1016400070471E48001D00884FF6F77108401B497F
:10165000091D088000BF1948001D008800F008001F
:101660000028F8D0704701460020144A121D128845
:101670000A400AB1012000E0002070470F49091D0F
:10168000098881430D4A121D1180704701460020D0
:101690000A4A121D12880A40D0B2084A12880A402B
:1016A00012B108B1012000E0002070470349091D74
:1016B00009888143014A121D1180704700280040AB
:1016C000042808D14FF0E021096941F004014FF0EE
:1016D000E022116107E04FF0E021096921F00401E7
:1016E0004FF0E022116170474FF0E02148617047F0
:1016F000012808D14FF0E021096941F001014FF0C4
:10170000E02211610EE0811C41B94FF0E02109692E
:1017100021F001014FF0E022116103E000214FF0C0
:10172000E0229161704740B14FF0E021096941F03A
:1017300002014FF0E022116107E04FF0E02109695A
:1017400021F002014FF0E022116170474FF0E020DC
:101750008069704710B50146002200230020CB109D
:10176000022B03D14FF0E024226902E04FF0E02485
:10177000E26901248C4014400CB1012000E00020FB
:1017800010BD000010B50446F749601A8C4245D0E0
:101790000CDCB4F1804F1DD0F448204418B3B0F5F0
:1017A000806F29D0B0F5006F54D12EE0B0F5806F76
:1017B0003DD0B0F58E3F03D0B0F5923F4AD13FE027
:1017C0000121C802FFF78AFE00214FF40060FFF7F5
:1017D00085FE40E001210846FFF78DFE0021012033
:1017E000FFF789FE37E001210220FFF784FE002188
:1017F0000220FFF780FE2EE001210420FFF77BFE90
:1018000000210420FFF777FE25E001210820FFF7E3
:1018100072FE00210820FFF76EFE1CE0012110205F
:10182000FFF769FE00211020FFF765FE13E001219C
:101830002020FFF760FE00212020FFF75CFE0AE079
:1018400001214803FFF74AFE00214FF40050FFF743
:1018500045FE00E000BF00BF10BD028802F08F020D
:101860000280CA884B881A4303881A4302808A88F8
:1018700082850A88028501228282BD4A904202D076
:10188000BC4A904201D10A7A0286704770B50024A2
:1018900000220023058C4FF6FE7635400584028C2D
:1018A0008388048B4FF68F752C400D882C43751E52
:1018B0002A400D892A434D882A43CD888586AC4D20
:1018C000A84202D0AB4DA84213D14FF6F7752A407B
:1018D0004D892A434FF6FB752A408D882A4347F6E7
:1018E000FF652B4047F6FF552B408D892B43CD8953
:1018F0002B4383800483028470BD70B500240022D2
:101900000023058C4FF6EF7635400584028C8388E2
:10191000048B48F6FF752C400D884FF6FF7606EADB
:1019200005252C434FF6DF752A400D8906EA05157B
:101930002A434D8806EA05152A43CD8805878C4D34
:10194000A84202D08B4DA8421DD14FF67F752A4088
:101950004D894FF6FF7606EA05152A434FF6BF7507
:101960002A408D8806EA05152A4347F6FF352B40A5
:1019700047F2FF752B408D8906EA85052B43CD89FB
:1019800006EA85052B4383800483028470BD70B50D
:10199000002400220023058C4FF6FF6635400584A5
:1019A000028C8388848B4FF68F752C400D882C43D6
:1019B0004FF6FF552A400D894FF6FF7606EA0525BA
:1019C0002A434D8806EA05252A43CD888587684D38
:1019D000A84202D0674DA8421DD14FF2FF752A40A0
:1019E0004D894FF6FF7606EA05252A434FF6FF3567
:1019F0002A408D8806EA05252A4346F6FF752B40C6
:101A000045F6FF752B408D8906EA05152B43CD89D8
:101A100006EA05152B4383808483028470BD70B56C
:101A2000002400220023058C4EF6FF763540058405
:101A3000028C8388848B48F6FF752C400D884FF606
:101A4000FF7606EA05252C434DF6FF752A400D89E1
:101A500006EA05352A434D8806EA05352A43CD882E
:101A6000A0F84050424DA84202D0424DA84207D1B2
:101A7000C3F30D038D894FF6FF7606EA85152B43D8
:101A800083808483028470BD828B4FF2FF331A40BF
:101A90008283828B4FF6FF7303EA01231A4382830A
:101AA0007047F0B50C461546002100220026078C31
:101AB0004EF6FF7C07EA0C070784818B028C4FF6F9
:101AC000FF7707EA043640F6FF4739404FF6FF77C5
:101AD00007EA05274FF6FF7C0CEA033C47EA0C07B0
:101AE00039434DF6FF773A4046F480573A438183B5
:101AF0000284F0BD828B4FF6F3731A408283828B8F
:101B00000A4382837047F0B50C4615460021002237
:101B10000026078C4FF6FF6C07EA0C070784818BC1
:101B2000028C4FF6FF7707EA04264FF60C77394010
:101B30004FF6FF7707EA03172F4339434FF6FF5756
:101B40003A4046F480773A4381830284F0BD028BA9
:101B50004FF2FF331A400283028B4FF6FF7303EA02
:101B600001231A43028370470010004000FCFFBFAE
:101B7000002C014000340140F0B50C461546002110
:101B800000220026078C4FF6EF7C07EA0C0707843B
:101B9000018B028C4FF6FF7707EA041640F6FF47E9
:101BA00039404FF6FF7707EA033739434FF6FF779F
:101BB00007EA052739434FF6DF773A4046F010072A
:101BC0003A4301830284F0BD028B4FF6F3731A404F
:101BD0000283028B0A4302837047F0B50C46154618
:101BE00000210022068C4FF6FE773E400684018BD2
:101BF000028C4FF60C7631407E1C06EA03162E430B
:101C000031437E1E324044F0010632430183028498
:101C1000F0BD70B505460C46208850B92389A288CE
:101C200061882846FFF7D9FFE1882846FFF7CCFFF7
:101C300025E0208804280AD12389A28861882846C3
:101C4000FFF79AFFE1882846FFF781FF17E0208819
:101C500008280AD12389A28861882846FFF753FF04
:101C6000E1882846FFF746FF09E02389A2886188BA
:101C70002846FFF716FFE1882846FFF705FF70BDED
:101C80002DE9F04105460C4600260127608808B979
:101C9000022600E00026A088012801D1022700E0EA
:101CA00001272088A0B92389A28861882846FFF7E8
:101CB00094FFE1882846FFF787FF23893A4631469B
:101CC0002846FFF759FFE1882846FFF740FF13E059
:101CD0002389A28861882846FFF74EFFE1882846BD
:101CE000FFF735FF23893A4631462846FFF775FF4F
:101CF000E1882846FFF768FFBDE8F0810A884B8835
:101D00001A438B881A43CB881A430B891A434B8991
:101D10001A438B891A43A0F8442070474FF6FF718D
:101D2000818000210180C1804180017270470021C3
:101D3000018041808180C180018141818181C18197
:101D40007047002101804180012181800021C180F4
:101D5000018170470021018041808180C180018123
:101D600041818181704721B1028842F001020280E5
:101D700004E0028840F2FE331A400280704731B11D
:101D8000B0F8442042F40042A0F8442005E0B0F846
:101D90004420C2F30E02A0F8442070471AB1838990
:101DA0000B43838102E083898B4383817047818267
:101DB000704741EA0203A0F8483070471AB183899E
:101DC0000B43838102E083898B43838170470189C0
:101DD0004FF6F8721140018170470A4600210189CF
:101DE0004FF68F73194011430181704730B5044697
:101DF0000D4629462046FFF7F0FF208940F00700F6
:101E0000208130BD2DE9F04104460D4616461F469F
:101E1000602D06D13B46012231462046FFF7ACFE3D
:101E200005E03B46012231462046FFF7D6FE294613
:101E30002046FFF7D2FF208940F007002081BDE84F
:101E4000F08170B50C4600210189C9B244EA02054F
:101E50004FF6FF7606EA032635432943018170BD1C
:101E60002DE9F04105460E461746984600244346A4
:101E70003A4631462846FFF7E4FF2C894FF6F870C2
:101E8000044044F007044FF68F70044044F070049F
:101E90002C81BDE8F081F0B504460D4616461F467C
:101EA0003B46324629462046FFF7CBFF208940F4C7
:101EB00080402081F0BD0185828270470A46002162
:101EC000018840F28F331940114301807047F0B50B
:101ED0000C4615461E460021002200230189028B74
:101EE000038C4FF6F877394021434FF6FC473A40D0
:101EF00040F201173A434FF6DD773B404FF6FF774C
:101F000007EA06172F433B43018102830384F0BD98
:101F10000A460021018B4FF68F731940114301834C
:101F200070470A460021018B48F6FF7319404FF6AF
:101F3000FF7303EA02231943018370470A46002115
:101F4000818B4FF68F7319401143818370470A4686
:101F50000021818B48F6FF7319404FF6FF7303EAA7
:101F6000022319438183704721B1028842F0800225
:101F7000028004E0028840F27F331A4002807047FA
:101F800021B1828842F00402828004E082884FF608
:101F9000FB731A408280704721B1828842F00802A8
:101FA000828004E082884FF6F7731A40828070477F
:101FB00021B1828842F00102828004E082884FF6DB
:101FC000FE731A40828070470A460021018B4FF64B
:101FD000F77319401143018370470A460021018BB2
:101FE0004FF2FF7319404FF6FF7303EA02231943C0
:101FF000018370470A460021818B4FF6F773194021
:102000001143818370470A460021818B4FF2FF7391
:1020100019404FF6FF7303EA022319438183704787
:102020000A460021018B4FF6FB73194011430183CF
:1020300070470A460021018B4FF6FF3319404FF6D7
:10204000FF7303EA02231943018370470A46002104
:10205000818B4FF6FB7319401143818370470A4609
:102060000021818B4FF6FF3319404FF6FF7303EACF
:1020700002231943818370470A460021018B4FF6E2
:102080007F7319401143018370470A460021018B79
:10209000C1F30E014FF6FF7303EA022319430183D4
:1020A00070470A460021818B4FF67F731940114318
:1020B000818370470A460021818BC1F30E014FF6E0
:1020C000FF7303EA02231943818370470A46002104
:1020D000018C4FF6FD7319401143018470470A4685
:1020E0000021018C4FF6F7731940114301847047AA
:1020F0000A460021018C4FF6DF7319404FF6FF733B
:1021000003EA02131943018470470A460021018C37
:102110004FF67F7319404FF6FF7303EA021319431A
:10212000018470470A460021018C4FF6FF53194085
:102130004FF6FF7303EA02231943018470470A46EE
:102140000021018C4FF2FF7319404FF6FF7303EA31
:1021500002231943018470470A460021018C4DF681
:10216000FF7319404FF6FF7303EA023319430184EA
:10217000704710B5038C01248C40A3430384038C67
:1021800002FA01F4A4B22343038410BD10B5038CFA
:1021900004248C40A3430384038C02FA01F4A4B208
:1021A0002343038410BD30B5038C01248C40A3432A
:1021B000038409B1082912D100F1180303EB61036C
:1021C0001B684FF68F74234000F1180404EB610480
:1021D000236000F1180303EB61031A6018E00B1F82
:1021E000C3F34E0400F118031B5948F6FF74234053
:1021F0000C1FC4F34E0500F1180463514FF6FF7332
:1022000003EA02240B1FC3F34E0500F118035C51CF
:1022100030BD21B1028842F00202028004E002884F
:1022200040F2FD331A400280704721B1028842F02B
:102230000402028004E0028840F2FB331A4002806C
:10224000704721B1828842F08002828004E0828857
:102250004FF67F731A4082807047028840F2F7334E
:102260001A40028002880A430280704782884FF633
:102270008F731A40828082880A4382807047028965
:102280004FF6F8731A40028102890A4302817047AF
:1022900002894FF67F731A40028102890A43028144
:1022A00070478184704781857047818670470187B8
:1022B000704781877047A0F8401070470288D2B2FB
:1022C000028002880A43028070470146888E704768
:1022D0000146088F70470146888F70470146B1F864
:1022E000400070470146888C70470146088D704752
:1022F00002460020138A0B400BB1012000E00020B1
:102300007047CA430282704730B50246002000235E
:102310000024158A05EA0103958905EA010413B131
:102320000CB1012000E0002030BDCA43028270479A
:1023300010B50446D749601A8C422BD006DCD6482B
:10234000204498B1B0F5806F38D119E0B0F5806FB6
:102350002AD0B0F56C4F31D101218803FFF7BEF8C8
:1023600000214FF48040FFF7B9F828E0012148042C
:10237000FFF7C1F800214FF40030FFF7BCF81EE072
:1023800001218804FFF7B7F800214FF48020FFF700
:10239000B2F814E00121C804FFF7ADF800214FF4B2
:1023A0000020FFF7A8F80AE001210805FFF7A3F8CD
:1023B00000214FF48010FFF79EF800E000BF00BF3F
:1023C00010BD2DE9F04786B005460E460024A24612
:1023D00000BF00BF00272F462C8A4CF6FF70044038
:1023E000F08804432C82AC894EF6F3100440B08888
:1023F00031890843718908430443AC81AC8A4FF6A4
:10240000FF400440B0890443AC8201A8FEF7DFFF1F
:10241000A248874202D1DDF810A001E0DDF80CA04F
:102420000AEBCA0000EB0A1031688900B0FBF1F832
:102430006420B8FBF0F004012009642101FB10893D
:10244000322000EB0910B0FBF1F000F00F00044364
:102450002C8106B0BDE8F0874FF4165101600021D1
:102460008180C18001810C214181002181817047DF
:1024700010B502460020108A4FF2FF0318400B8867
:102480004C8823438C882343CC88234318431082F1
:1024900010BD0021018041808180C180704721B141
:1024A000828942F40052828104E082894DF6FF73F2
:1024B0001A4082817047F0B50346002400260025AB
:1024C00000201846C1F3421401F01F06012707FA45
:1024D00006F5012C01D10C3004E0022C01D11030A2
:1024E00000E014301AB107682F43076002E0076864
:1024F000AF430760F0BD1AB1838A0B43838202E0C9
:10250000838A8B4383827047028A4FF6F0731A40A6
:102510000282028A0A430282704782894FF2FF7365
:102520001A40828182890A438281704721B182895F
:1025300042F00202828104E082894FF6FD731A4064
:1025400082817047028A4FF6DF731A400282028A44
:102550000A430282704721B1028A42F48042028219
:1025600004E0028A4BF6FF731A4002827047C1F3FF
:1025700008028280704701468888C0F308007047CF
:10258000818941F0010181817047028BD2B20283BF
:10259000028B42EA012202837047028B02F47F42DF
:1025A0000283028B0A430283704721B1828A42F080
:1025B0002002828204E0828A4FF6DF731A40828210
:1025C000704721B1828A42F01002828204E0828A3E
:1025D0004FF6EF731A408282704721B1828A42F02F
:1025E0000802828204E0828A4FF6F7731A408282E0
:1025F0007047828A4FF6FB731A408282828A0A43AE
:102600008282704721B1828A42F00202828204E013
:10261000828A4FF6FD731A4082827047024600207C
:1026200013880B400BB1012000E000207047CA4323
:102630000280704770B502460B4600240021002539
:102640000020C3F3421503F01F01012606FA01F131
:10265000012D02D19689314006E0022D02D1168A61
:10266000314001E0968A31401C12012606FA04F43A
:102670001688344011B10CB1012000E0002070BD7B
:1026800010B5002200230A1201249440A3B2DC43B7
:10269000048010BD004C004000BCFFBF003801406A
:1026A00010B54FF48051FE48FEF7A0FA10BD10B5EA
:1026B0004FF48051FA48FEF797FA10BD08B54FF471
:1026C0000040ADF8000003208DF8020010208DF8C6
:1026D00003006946F248FEF7DBF908BD08B54FF480
:1026E0000040ADF8000048208DF803006946EC4832
:1026F000FEF7CEF908BD70B50446FFF7DFFF0025F1
:102700001FE004F0800028B14FF40041E448FEF7D8
:102710006BFA04E04FF40041E148FEF767FA00BFAE
:102720004FF40051DE48FEF75FFA00BF072D04DAD0
:102730004FF40051DA48FEF759FA6006040E681C9F
:10274000C5B2082DDDDBFFF7C9FF4FF40051D448B7
:10275000FEF74CFA70BD10B5FFF7A2FF7020FFF72F
:10276000CAFFFFF7A4FF10BD10B5FFF799FF602067
:10277000FFF7C1FFFFF79BFF10BD10B5FFF790FFFC
:10278000E020FFF7B8FFFFF792FF10BD70B5FFF72D
:10279000A5FF002519E04FF40041C148FEF70AFAF1
:1027A00010B96006040E03E0012000EB4400C4B23F
:1027B0004FF40051BA48FEF717FA00BF4FF400512A
:1027C000B748FEF713FA681CC5B2082DE3DB2046B4
:1027D00070BD2DE9F0470446FFF762FF2020FFF7A8
:1027E0008AFF002504E0605DFFF785FF681CC5B225
:1027F000042DF8DBFFF75BFFFFF752FFA020FFF788
:102800007AFFFFF7C3FF0746FFF7C0FF8046FFF7D9
:10281000BDFF8146FFF7BAFF06462078B84201D0D7
:1028200000BFFEE76078404501D000BFFEE7A0781A
:10283000484501D000BFFEE7E078B04201D000BFBC
:10284000FEE700BFFFF733FFBDE8F08770B5044631
:102850000E46FFF733FFFFF723FF00BF00251CE004
:1028600004F0800028B14FF400418D48FEF7BCF918
:1028700004E04FF400418A48FEF7B8F94FF40051E4
:102880008748FEF7B1F900BF4FF400518448FEF7C6
:10289000ADF96006040E681CC5B2082DE0DB00BF70
:1028A000002520E006F4004028B14FF400417C48A8
:1028B000FEF79AF904E04FF400417948FEF796F9E3
:1028C0004FF400517648FEF78FF900BF0F2D04DA60
:1028D0004FF400517248FEF789F94FF6FF7000EA95
:1028E0004606681CC5B2102DDCDBFFF7F7FE4FF47F
:1028F00000516B48FEF77AF9FFF7D9FE70BD10B5AD
:1029000004466848007878B16000674A32F81010D1
:102910000120FFF79BFF6000401C634A32F8101053
:102920000220FFF793FF0EE06000604A32F81010BB
:102930000120FFF78BFF6000401C5C4A32F810104A
:102940000220FFF783FF10BD70B50546FFF7B6FE06
:10295000FFF7A6FE45F0800500241FE005F080008B
:1029600028B14FF400414E48FEF73EF904E04FF421
:1029700000414B48FEF73AF900BF4FF40051484878
:10298000FEF732F900BF072C04DA4FF40051444837
:10299000FEF72CF96806050E601CC4B2082CDDDBBE
:1029A000FFF79CFE4FF400513D48FEF71FF900BFB2
:1029B00000241BE04FF400413948FEF7FBF820B932
:1029C0004FF6FF7000EA460603E0012000EB4600E8
:1029D00086B24FF400513248FEF706F900BF4FF4BB
:1029E00000512F48FEF702F9601CC4B2102CE1DB45
:1029F000FFF75DFE304670BD70B504460E462546B5
:102A00002B48808A40EA053085B229460520FFF729
:102A10001DFF31460620FFF719FF70BD70B5044653
:102A200025462348808A40EA053085B2294605209C
:102A3000FFF70CFF0620FFF787FF0546284670BD0D
:102A400000BFFEE770B51A48808F41F602021043BE
:102A500081B20F20FFF7FAFE00BF0F20FFF774FFCF
:102A6000044641F602000440002CF6D10E20FFF788
:102A70006BFF0446C4F300150DB1FFF7E1FF0A48F0
:102A800081880120FFF7E2FE0748C1880220FFF796
:102A9000DDFE0748808F80B240F004010F2009E07E
:102AA000000C014026000020101A01081C1A010821
:102AB00098190108FFF7CAFE00BF0F20FFF744FF77
:102AC000044604F00404002CF7D10E20FFF73CFF6D
:102AD0000446C4F300260EB1FFF7B2FF70BD10B577
:102AE000F948008D80B240F401410A20FFF7AEFEA4
:102AF000F548808F80B240F001010F20FFF7A6FE5D
:102B000010BD10B5002408E0EF4830F8240081B271
:102B10002046FFF79BFE601CC4B2102CF4DB00249F
:102B200008E0EA4830F8240081B22046FFF764FF4D
:102B3000601CC4B20D2CF4DB10BD08B5E4A0006825
:102B400000900020E3490870FFF7B1FD4FF40051F9
:102B5000E148FEF74BF80020E0490870E0490870B2
:102B6000FFF7F9FDD848808E81B20D20FFF76EFE89
:102B7000782001F08FFFD548808C81B20920FFF7C3
:102B80003BFFFFF7BEFFFFF7AAFF642001F082FFC3
:102B90006846FFF71EFEFFF755FFD248007838B9A8
:102BA000C948008C80B240F002010820FFF74EFEB9
:102BB0000020CD490870CD49CB4A1278885CFFF7D8
:102BC0009EFE0120C349087008BD10B50446C548E3
:102BD000007830B1BC48008C81B20820FFF736FE87
:102BE00007E0B948008C80B240F002010820FFF7EE
:102BF0002DFE10BD10B5FFF7B7FDFFF751FD4020CA
:102C0000FFF779FD002405E0B949085DFFF773FD82
:102C1000601CC4B2402CF7DBFFF749FD10BD70B556
:102C200005460E46FFF7A0FDFFF73AFD4020FFF7EF
:102C300062FD002404E0285DFFF75DFD601CC4B266
:102C4000B442F8DBFFF733FD70BD10B544F27801F4
:102C50000F20FFF7FBFD10BD10B544F268010F20F7
:102C6000FFF7F4FD10BD70B506460C46A14800887C
:102C7000401CA04908809A480078A04206D0601EF7
:102C800081B20B20FFF7E2FD95480470FFF775FD58
:102C9000FFF706FDC020FFF72EFD002504E0FFF73B
:102CA00075FD7055681CC5B2A542F8DBFFF7FFFC47
:102CB00070BD70B50446FFF701FDFFF7F1FC00257C
:102CC0001EE004F0800028B14FF400418248FDF777
:102CD0008BFF04E04FF400417F48FDF787FF00BF02
:102CE0004FF400517C48FDF77FFF072D04DA4FF4C5
:102CF00000517948FDF77AFF6006040E681CC5B2E2
:102D0000082DDEDBFFF7EAFC4FF400517248FDF7B7
:102D10006DFFFFF7CCFC70BD70B504464FF4FF7536
:102D2000754804700720754908700220FDF77DFB87
:102D300001E0681E85B27148007808B1002DF8D115
:102D400070BD70B5054600242846FFF7E5FF07E093
:102D5000B4F57A7F00D307E0012001F09BFE641CEC
:102D6000674800780028F3D000BF65480078012844
:102D700003D100206249087070BD002060490870CE
:102D8000FF20F9E710B506205C4908701020FFF716
:102D900090FF0A2001F07EFE03205049087010BD0C
:102DA00010B5FF240620554908700220FDF73DFBB1
:102DB00001E0601EC4B25148007808B1002CF8D17F
:102DC00010BD70B504461420FFF773FF1820FFF7FD
:102DD00070FFC82502E0012001F05CFE0121494896
:102DE000FDF7E8FE20B9281EA5F101018DB2F2D150
:102DF00001203A4908703A480078A04206D0601E87
:102E000081B20B20FFF722FD3548047070BD70B50C
:102E100006460D461420FFF74CFF31480078A842C3
:102E200006D0681E81B20B20FFF710FD2C480570FC
:102E300029463046FFF7F3FE1A20FFF73AFFC82471
:102E400002E0012001F026FE01212E48FDF7B2FE2E
:102E500020B9201EA4F101018CB2F2D102201F4939
:102E600008704FF47A6401E0601E84B201212548A5
:102E7000FDF7A0FE08B1002CF6D100BF0CB901206F
:102E800070BD0020FCE72DE9F04104460D461646D2
:102E90004FF4FF771C480460174805700520174958
:102EA00008700220FDF7C1FA01E0781E87B21348CE
:102EB000007808B1002FF8D13046FFF72DFF1348F6
:102EC0000078BDE8F081000098190108D8190108C0
:102ED00055AA55AA54000020000C01402B000020E8
:102EE0002A00002026000020290000200C1A0108DA
:102EF000581901080C00002050000020510000204B
:102F0000E8000020000801404C0000205200002092
:102F100030B585B004460D468B4884422AD1012144
:102F200044F20400FEF7C0FA6015ADF81000182056
:102F30008DF8130003208DF8120004A98348FDF7D3
:102F4000A7FD2015ADF8100004208DF8130004A98A
:102F50007E48FDF79DFD0220ADF8100010208DF891
:102F6000130004A97948FDF793FD02217748FDF786
:102F70003DFE44E0764884421FD101214804FEF71B
:102F8000A0FA01210420FEF78FFA0420ADF810000A
:102F900018208DF8130003208DF8120004A96B4847
:102FA000FDF776FD0820ADF8100048208DF81300DD
:102FB00004A96648FDF76CFD21E0664884421ED1F5
:102FC00001218804FEF77DFA01210820FEF76CFA42
:102FD0002015ADF8100018208DF8130003208DF88F
:102FE000120004A95C48FDF753FDE014ADF8100091
:102FF00048208DF8130004A95748FDF749FD0095B6
:103000000020ADF80400ADF80600ADF80800ADF8FA
:103010000C000C20ADF80A0069462046FFF7D1F9F4
:103020004948844203D04A48844200D000BF01216D
:103030002046FFF734FA05B030BD70B504460D46A2
:1030400029462046FFF793FA00BF80212046FFF76C
:10305000E5FA0028F9D070BD2DE9F04107460C468D
:1030600015460026384887421AD102213748FDF715
:10307000BBFD41F6FF7001F01EFD06E014F8011BD8
:103080003846FFF7DAFF761C6D1E002DF6D141F6AB
:10309000FF7001F010FD02212C48FDF7A7FD09E0AB
:1030A00006E014F8011B3846FFF7C7FF761C6D1EBB
:1030B000002DF6D13046BDE8F08110B5044640F24F
:1030C00027712046FFF7B6FA60B11F48844203D04B
:1030D0001F48844200D000BF40F227712046FFF70E
:1030E000CFFA11E040F225512046FFF7A3FA58B17C
:1030F0001548844203D01648844200D000BF40F2F5
:1031000025512046FFF7BCFA10BD00BF704770B5CF
:1031100004460D46E1B20E48FFF729FA00BF8021B0
:103120000B48FFF77BFA0028F9D0204670BD10B598
:10313000044600BF20210648FFF770FA0028F9D0A6
:103140000348FFF718FA10BD00380140000801409D
:103150000044004000480040000C014010B5044607
:103160000420FE490870FE48001BC00AFD490860A3
:103170003520FDF71AFC0020FB4908600EE0FA49F3
:1031800009684FF4006202FB0140FDF7E9F9F349D9
:103190000870F5480068401CF3490860F248006870
:1031A000F0490968884203D2EC4800780428E6D048
:1031B00010BD10B504463520FDF7F7FB206810BDA3
:1031C0002DE9F04105460E461746002409E056F861
:1031D000241005EB8400FDF754FAE0490870601CE8
:1031E00084B2DE480078042801D1BC42EFDBDB4822
:1031F0000078BDE8F08110B5FDF76BF9DB48FFF70B
:10320000ADFF0B22DA49D948FFF7DAFF0422D9498A
:10321000D948FFF7D5FF1022D849D948FFF7D0FF8A
:103220000622D849D848FFF7CBFFFDF758F910BD63
:1032300070B505460E462C21CD480DF071FD1021CC
:10324000CC480DF04BFD1821CE480DF047FDC84885
:103250000560280CC6498880CD8042F21070B5FB0D
:10326000F0F40A20B4FBF0F100FB1140C0494882A1
:103270000A20B4FBF0F4B4FBF0F100FB1140BC49B0
:10328000498A01EB0010BA4948820A20B4FBF0F4E5
:10329000B4FBF0F100FB1140B549498A01EB002075
:1032A000B34948820A20B4FBF0F4B4FBF0F100FB10
:1032B0001140AF49498A01EB0030AD4948820A20EC
:1032C000B4FBF0F4B4FBF0F04FF4005101EB00104C
:1032D0000A21B4FBF1F201FB12410844A44908821F
:1032E00008468660300C8881CE8101200875032055
:1032F000487500208875C87508760A204883888339
:10330000C88378200884012081F82200002081F8F9
:103310002300012081F8240040F20710C88440F205
:10332000024008854FF6FF709249088000204880CF
:103330004FF49670C88005204871CD200871502048
:1033400008720D204872102088720846C07A20F05A
:10335000F0001030C8720846C07A20F00F000A3022
:10336000C8724CF2A800874908804FF499704880D1
:103370004FF6FF7088804FF47F40C8804CF2A80061
:10338000088140F2011048810220087346F60E20A1
:10339000C88148F6A960088240F6A17048820020E2
:1033A0000875402175480DF099FC7848416E7348C6
:1033B000884777480168714888477648816B6F482D
:1033C000884770BD08B501F087FA01214FF0C05061
:1033D000FEF777F801210846FEF766F801216E48EE
:1033E000FDF726FC01F088FB01F071FB4FF416514C
:1033F0006A48FFF78DFD4FF416516948FFF788FDC5
:103400004FF416516748FFF783FD01F0D3FB01F03D
:1034100099FB01F036FC64480BF0DFFD01F0AEFAD9
:1034200001F055FB7D20FDF711FF08B1FEF77AF89A
:1034300045F25550FDF75AFC0520FDF75AFC40F6C1
:10344000C410FDF759FC002058490870FFF775FBC0
:10345000FDF75AFC01F03BFB4FF400515448FDF7D7
:10346000C3FB4FF4967001F039FB4FF40051504804
:10347000FDF7BCFB01F02BFB4E4800784E4908706D
:1034800003204E4908703A4EFDF723F84C48FFF7E9
:1034900090FE4C4908604A48001DFFF78AFE4A49E1
:1034A000086000240AE0F02001F0F4FA2F4901EB53
:1034B0008400FFF77EFE46F82400641C0B2CF2DB30
:1034C0002C4E00240AE0F02001F0E4FA2A4901EB36
:1034D0008400FFF76EFE46F82400641C042CF2DB27
:1034E000264E00240AE0F02001F0D4FA244901EB32
:1034F0008400FFF75EFE46F82400641C102CF2DB0B
:10350000204E00240AE0F02001F0C4FA1E4901EB2D
:103510008400FFF74EFE46F82400641C062CF2DB04
:10352000FCF7DDFF1948416E1448884718480168C8
:10353000124888471748816B10488847214800681F
:103540004FF47A71B0FBF1F00A21B0FBF1F201FB0C
:10355000120040001D490870084639E0C0000020F4
:1035600000F80308BC000020B800002000F00308A9
:10357000240400205004002000F10308A0040020CF
:1035800000F203085E04002000F303088402002018
:1035900018030020BC010020000230000038014068
:1035A00000440040004800404C3C00202600002021
:1035B00000100140E0000020DE0000202B00002071
:1035C00000E80308D000002014030020550000206C
:1035D0000078102801DD10200870002408E0F94A66
:1035E00032F81410F84A52F82400FDF7FFFA641C70
:1035F000202CF4DB01F06BFA002418E0F14A32F8D9
:103600001410F14A52F82400FDF7EEFA4FF4FA7064
:1036100001F064FAEB4A32F81410EB4A52F8240035
:10362000FDF7E4FAFDF76BFB01F051FA641CE74883
:1036300000788442E2DBE6480068401C50B9E54867
:103640000068401C30B9E449E448FFF7F1FDFFF79A
:10365000D2FD13E0E2480068DD490968884205D1DF
:10366000DF488068DB490968884207D0D94801688B
:10367000D7480068FFF7DCFDFFF7BDFDD4480068C0
:1036800001F0A6FFD2480768380E07F47F0140EA30
:10369000112007F47F4140EA012040EA0760CC494D
:1036A0000860D0480078012802D1CF49486E804791
:1036B000CE480078012802D1CD49086B8047C9481F
:1036C0000078012816D1BF4A5188BF4A5068FDF7DB
:1036D0008BFAC549C86D804730B1BA4A5188BA4A99
:1036E0005068FDF781FA05E0B64A5188B64A50683D
:1036F000FDF77CFABD480078012816D1B14A5188FF
:10370000B14A5068FDF770FAB949886A804730B10C
:10371000AC4A5188AC4A5068FDF766FA05E0A94A00
:103720005188A94A5068FDF761FAB248007801282B
:1037300002D1B149486F8047B0480078012801D1D3
:103740000DF0D4F800200090A548437D017D0022B3
:10375000104602F059F802F01FF902F017FD451C5F
:10376000032005F8010B042005F8010B9C48808814
:10377000001205F8010B9A48007905F8010B9848EA
:10378000C088001205F8010B95488079287002F076
:10379000FDFC00F101089249087D0622414602F035
:1037A0005FFD0720FFF7B8FA2EE002F01AF99448FF
:1037B0000078012802D19349086880478948007839
:1037C000012802D18849886E8047884800780128FE
:1037D00002D18749486B80478848007801280FD17B
:1037E000894800687D280BD30020874908608748F6
:1037F0000DF098F8854948730E228548FFF72CFC98
:10380000FDF77DFA01F063F9CFE70246002109E0F8
:10381000804830F81100904202D1481C80B27047B5
:10382000481C81B22029F3DB01D11046F7E710468E
:10383000F5E72DE9F04702F0A9FC441C02F0A6FCD4
:10384000861C4FF00608032004F8010B042030709A
:10385000641C5F4800682060241DA9E06E48007861
:10386000C0EBC0006D4945186B480078C0EBC00044
:103870004718A8780221B1EB501F0ED1684829885B
:103880000180A9788170674863490978405C644980
:10389000C870D7F8030048607CE0A8780321B1EB3A
:1038A000501F38D15E4800882988884272D15C490F
:1038B0000888FFF7AAFF5A490880084600880012C6
:1038C00004F8010B0846007804F8010BC978554A42
:1038D000514B1B78D25C881800EBD071C1F34701C3
:1038E0004F4AD170D7F80300114688601022891C16
:1038F00020460DF07CF90E342888001204F8010BE4
:10390000287804F8010B30781230307008F112007A
:103910001FFA80F83EE02888FFF777FF81464FEADC
:10392000292004F8010B04F8019B3B480078C0EB08
:10393000C0003A490844807804F8010B39483649F8
:103940000978405C04F8010B0E2120460DF0C6F901
:1039500031480078C0EBC00030490844B0F8050099
:10396000208008342C480078C0EBC0000844B0F830
:1039700003002080241D2888001204F8010B2878F9
:1039800004F8010B30781230307008F112001FFA81
:1039900080F800BF20480078401C1F490870084686
:1039A0000078182190FBF1F201FB12001A4908700F
:1039B000194800781C49097888427FF44FAF404687
:1039C000BDE8F08798000020580000205500002036
:1039D000D0000020140300204E61BC007856341241
:1039E00024040020F000002078030020F1000020D3
:1039F000E4030020EC00002084020020F2000020FC
:103A0000ED000020FC01002020040020983D002053
:103A100000380140A0040020E0000020E004002065
:103A20007404002088040020DE0000202DE9F0410D
:103A300002F0ACFB441C02F0A9FB861C0627032005
:103A400004F8010B04203070641CF9480068206001
:103A5000241D38E0F7480078C0EBC000F64945184F
:103A6000A8780221B1EB501F1FD02888FFF7CDFEA8
:103A70000346181204F8010B04F8013BED480078E6
:103A8000C0EBC000EC490844807804F8010BE94819
:103A90000078C0EBC0000844007904F8010B3078CE
:103AA000001D3070381D87B200BFE2480078401C0E
:103AB000E049087008460078182190FBF1F201FBFC
:103AC0001200DC490870DB480078DC49097888423C
:103AD000C0D13846BDE8F08170B5D94890F82400CF
:103AE00018B1FFF7A3FF044602E0FFF7A2FE044669
:103AF000062C08DD02F04AFB451CD149087D224610
:103B0000294602F0ADFB70BD70B504462546A87885
:103B10000321B1EB501F12D1CA48408878B1C9487F
:103B200000882988884205D0C64800884FF6FF7172
:103B3000884204D107220E21C248FFF7A4F970BDC4
:103B40002DE9F843054600260027B0462888ADF841
:103B50000000A8788DF802002979E87841EA002071
:103B60001FFA80F89DF802000121B1EB501F04D02C
:103B70009DF802004009002875D10024F0E0B24809
:103B800030F81400BDF80010884206D0AE4830F876
:103B900014004FF6FF71884274D1AC4800780128B8
:103BA0001CD1AB480078C8B92046E11704EB51712D
:103BB000C1F3C706E11704EB5171C910A4EBC101B1
:103BC000CFB2A448805D0121B940084030B19E4980
:103BD00031F81400A049CA6E012190479F4800782F
:103BE000002858D19E480078844253DA9448007ED9
:103BF000072839D2DFE800F004192021282F3000EF
:103C00008F4890F82200012808D0964A32F8141004
:103C1000954A52F82400FCF7E7FF05E0A0B293496B
:103C200001220B684146984734E0A0B28F49012237
:103C30008B68414698472DE02CE0A0B28B490122C9
:103C40008B694146984725E0A0B2884901220B6A5A
:103C5000414698471EE01DE0A0B2844901220B6B4B
:103C60004146984716E07FE0754890F82200012809
:103C700009D07C4A32F814107B4A52F82400FCF731
:103C8000B3FF06E06BE0A0B2784901220B68414621
:103C9000984700BF62E06A48007E072840D2DFE80C
:103CA00000F00421282930373800654890F82200B8
:103CB000012810D06A480078844207DA694A32F84D
:103CC0001410694A52F82400FCF78EFFE1B26848EC
:103CD0000CF03BFE05E0A0B2644901220B684146AE
:103CE00098473AE0A0B2614901228B684146984763
:103CF00033E032E0A0B25D4901228B69414698472A
:103D00002BE0A0B2594901220B6A4146984724E0B2
:103D100023E0A0B2554901220B6B414698471CE0B5
:103D2000474890F82200012810D04D48007884427E
:103D300007DA4C4A32F814104B4A52F82400FCF7C8
:103D400053FFE1B24A480CF000FE05E0A0B247493B
:103D500001220B684146984700BF00BF00BF641CAA
:103D6000202CFFF60CAF24E19DF802000721B1EBF7
:103D7000501F05D09DF802000621B1EB501FF2D173
:103D8000002413E1304830F81400BDF800108842D8
:103D900006D02D4830F814004FF6FF71884269D1E3
:103DA0002A48007801281CD129480078C8B9204643
:103DB000E11704EB5171C1F3C706E11704EB517130
:103DC000C910A4EBC101CFB22248805D0121B940E6
:103DD000084030B11C4931F814001F49CA6E002157
:103DE00090471E48007800287BD11D480078844207
:103DF0006EDA1348007E07285BD2DFE800F0043C4F
:103E00003D444B4C53000E4890F82200012808D046
:103E1000144A32F81410144A52F82400FCF7E6FE53
:103E200005E0A0B2114900220B684146984757E0CF
:103E3000D0000020E0000020E0040020DE00002090
:103E40002404002050040020A0040020ED000020E5
:103E5000F90100209B0C0020FC010020F200002052
:103E6000550000209800002058000020BC010020D0
:103E7000983D002099E033E0A0B2E34900220B69AD
:103E8000414698472CE0A0B2DF4900228B694146A9
:103E9000984725E024E0A0B2DB4900228B6A414626
:103EA00098471DE0A0B2D84900220B6B41469847C5
:103EB00016E0D64890F8220001280AD0D44A32F8F9
:103EC0001410D44A52F82400FCF790FE07E008E0F2
:103ED0006AE0A0B2CC4900220B684146984700BF77
:103EE00062E0CA48007E072840D2DFE800F00421E3
:103EF000222930313800C54890F82200012810D01E
:103F0000C5480078844207DAC14A32F81410C14A21
:103F100052F82400FCF76AFEE1B2C0480CF02CFD18
:103F200005E0A0B2B84900220B68414698473AE044
:103F300039E0A0B2B44900220B694146984732E00B
:103F4000A0B2B14900228B69414698472BE02AE094
:103F5000A0B2AD4900228B6A4146984723E0A0B247
:103F6000A94900220B6B414698471CE0A74890F8EE
:103F70002200012810D0A8480078844207DAA44A19
:103F800032F81410A34A52F82400FCF72FFEE1B2D5
:103F9000A2480CF0F1FC05E0A0B29B4900220B689E
:103FA0004146984700BF00BF00BF641C202CFFF6AD
:103FB000E9AEBDE8F88310B50346002010BD2DE939
:103FC000F84304460D46164698464FF00009002D6A
:103FD00002DBA81920280DDDFF2D03DDA819B0F59F
:103FE000887F07DDB5F5805F78DBA81941F2100105
:103FF000884273DCB8F1000F03D0B8F1010F6ED125
:10400000FEE1F9E1152D6BD00EDC152D69D2DFE84C
:1040100005F0252D353D47515B697179828C96A05D
:10402000ABB4BDC8D3E2F100B5F5857F72D00ADC30
:10403000A5F580700A28E9D2DFE800F0FBFAF9F86C
:10404000F7F6F5F4F3F2A5F580500A28DED2DFE8A2
:1040500000F0FAF9F8F7F6F5F4F3F2F1002004F8BD
:10406000010B6A48007D04F8010BC0E1002004F850
:10407000010B6648407D04F8010BB8E1002004F80C
:10408000010B6248807D04F8010BB0E15F48808835
:10409000001204F8010B5D48007904F8010BA6E159
:1040A0005A48C088001204F8010B5848807904F877
:1040B000010B9CE15548008A001204F8010B53489B
:1040C000007C04F8010B92E15048408A001204F889
:1040D000010B4E48807C04F8010B88E18DE38BE3F3
:1040E000B2E07EE1002004F8010B4848C07D04F8EE
:1040F000010B7CE1002004F8010B4748007804F82C
:10410000010B74E1002004F8010B4048007E04F824
:10411000010B6CE15DE13D48408B001204F8010B9E
:104120003A48807E04F8010B61E13848808B001228
:1041300004F8010B3548007F04F8010B57E13348C0
:10414000C08B001204F8010B3048807F04F8010B8B
:104150004DE12E48008C001204F8010B2B4890F81A
:10416000200004F8010B42E1002004F8010B27486D
:1041700090F8220004F8010B39E1002004F8010B4B
:10418000224890F8230004F8010B30E11F48C08C4E
:10419000001204F8010B1D4890F8260004F8010BEA
:1041A00025E11A48008D001204F8010B174890F819
:1041B000280004F8010B1AE1FDF7FEF9A0F5E14033
:1041C000000E04F8010BFDF7F7F9A0F5E140000C33
:1041D00004F8010B0BE1FDF7EFF9A0F5E140000A4F
:1041E00004F8010BFDF7E8F9A0F5E14004F8010B34
:1041F000FDE0FFE705488089001204F8010B034841
:10420000007B04F8010BF2E0BC0100202404002034
:10421000980000205800002055000020983D002004
:10422000CDE0C2E0B7E0AEE0A3E098E08DE082E050
:1042300077E06CE062E057E04EE045E03CE033E0E0
:1042400028E01FE014E009E0F948C089001204F8F2
:10425000010BF748807B04F8010BC8E0F5480088A3
:10426000001204F8010BF348007804F8010BBEE0DB
:10427000F0484088001204F8010BEE48807804F8FA
:10428000010BB4E0002004F8010BEA48007904F8BF
:10429000010BACE0E748C088001204F8010BE548C8
:1042A000807904F8010BA2E0002004F8010BE1483A
:1042B000407904F8010B9AE0002004F8010BDD4876
:1042C000007A04F8010B92E0002004F8010BD948B1
:1042D000407A04F8010B8AE0002004F8010BD5486D
:1042E000807A04F8010B82E0002004F8010BD14829
:1042F000C07A00F00F0004F8010B78E0002004F809
:10430000010BCC48C07A000904F8010B6FE0CA48E1
:104310000088001204F8010BC748007804F8010B6C
:1043200065E0C5484088001204F8010BC248807857
:1043300004F8010B5BE0C0488088001204F8010B10
:10434000BD48007904F8010B51E0BB48C088001259
:1043500004F8010BB848807904F8010B47E0B6482F
:104360000089001204F8010BB348007A04F8010B2D
:104370003DE0B1484089001204F8010BAE48807A54
:1043800004F8010B33E0002004F8010BAA48007B7D
:1043900004F8010B2BE0A848C089001204F8010BB7
:1043A000A548807B04F8010B21E0A348008A001295
:1043B00004F8010BA048007C04F8010B17E09E48AC
:1043C000408A001204F8010B9B48807C04F8010B22
:1043D0000DE0002004F8010B9748007D04F8010B64
:1043E00005E0002004F8010B04F8010B00BF00BF3A
:1043F000681C85B2701E86B2002E3FF703AEFBE14B
:10440000E8E140F20311681A8D4271D021DC0D2DD4
:104410006FD00ADC0D2D6DD2DFE805F03E51646CE3
:104420006C6C6C6D6C737D8C9D00132D6FD006DCF5
:104430000E2D6DD00F2D6CD0122D5BD1B1E0B5F5E6
:10444000807F67D0A5F20110002870D00128F4D138
:104450003CE140F6FF62811A904269D014DC0528E5
:1044600067D008DC012871D0022870D003286FD0F3
:104470000428E2D160E106286BD0A0F6FD60002898
:1044800068D00128D9D1B4E00829C4D2DFE801F00E
:1044900032C3D8DEE4EAF2FC641C14F8010B644970
:1044A000087501F089FA002000906148437D017D84
:1044B0000022104601F0A8F901F06EFA68E1641CD0
:1044C00014F8010B5A49487501F076FA0020009063
:1044D0005748437D017D0022104601F095F901F017
:1044E0005BFA55E1641C14F8010B514988754FE1E2
:1044F000F8E03CE044E1641C14F8010B4C49C87539
:1045000046E1641C14F8010B4949087640E155E086
:1045100039E03FE0C2E02078000245494883641C4E
:1045200014F8010B498B08434149488330E1C1E04D
:104530006BE00DE1207800023D498883641C14F88B
:10454000010B898B08433A49888321E1D6E0E1E0F9
:10455000ECE009E141E0207800023549C883641CA1
:1045600014F8010BC98B08433149C88310E1207846
:1045700000022F490884641C14F8010B098C0843BD
:104580002B49088404E1641C14F8010B284981F8C4
:104590002200FDE0641C14F8010B254981F823007A
:1045A000F6E02078000625490860641C2078096838
:1045B00041EA004021490860641CE9E020781F4975
:1045C000096841EA00201D490860641C14F8010BC9
:1045D0000968084319490860DAE0207800021549A3
:1045E0000880641C14F8010B0988084311490880ED
:1045F000CEE0207800020F494880641C14F8010BBB
:10460000498808430B494880C2E0641C14F8010B38
:1046100008490871BCE0207800020649C880641C83
:1046200014F8010BC98808430249C880B0E00000B3
:1046300024040020500400205E040020C400002058
:10464000641C14F8010B9A494871A1E0641C14F829
:10465000010B974908729BE0641C14F8010B944904
:10466000487295E0641C14F8010B914988728FE040
:104670000AE0FFE7641C14F8011B8D48C07A61F35F
:1046800003008B49C87283E0641C14F8011B88483E
:10469000C07A61F307108649C87279E02078000279
:1046A00084490880641C14F8010B09880843814977
:1046B00008806DE0207800027E494880641C14F870
:1046C000010B498808437B49488061E0207800025B
:1046D00078498880641C14F8010B8988084375495F
:1046E000888055E0207800027249C880641C14F864
:1046F000010BC98808436F49C88049E0207800024F
:104700006C490881641C14F8010B09890843694944
:1047100008813DE02078000266494881641C14F855
:10472000010B498908436349488131E0641C14F84E
:10473000010B604908732BE0207800025D49C881B5
:10474000641C14F8010BC98908435A49C8811FE049
:104750002078000257490882641C14F8010B098A6A
:1047600008435449088213E02078000251494882E6
:10477000641C14F8010B498A08434E49488207E03B
:10478000A41C4B48408810B100204B49088000BF52
:1047900000BF4A4800686FF30F00B8B1474800886F
:1047A00080B298B101210807FCF78BFE0120FCF7CD
:1047B000B4FCFCF73DFF4148006800F5E140FCF720
:1047C00004FFFCF735FF00203C490860681C85B2F7
:1047D000701E86B2002E3FF714AEFEF70CFD38486F
:1047E000416E384888473848016836488847374816
:1047F000816B3448884700BF50E0B5F5005F4BDB64
:10480000A81942F22001884246DCA5F50057B8F10C
:10481000000F03D0B8F1010F3DD111E00DE02948A0
:1048200030F81700001204F8010B264810F81700A2
:1048300004F8010B7F1C701E86B2002EEFDC2AE00C
:1048400010E014F8011B08021E4921F8170014F8A3
:10485000010B31F8171008431A4921F817007F1C83
:10486000701E86B2002EECDCFEF7C5FC1448416ECB
:104870001448884714480168124888471348816BD8
:104880001048884712480078012803D11148816AEE
:104890000C48884700BF01E04FF001094846BDE8D9
:1048A000F88310B50446012010BD0346012070476F
:1048B000500400205E040020C8000020C400002036
:1048C00084020020A004002018030020BC01002066
:1048D000ED000020FC01002010B5FCF775FC4FF442
:1048E0008030FCF790FCFCF7CDFC234908700846AB
:1048F0000078012812D10020FCF70DFD0020FCF704
:104900001CFD4FF48060FCF70FFD0220FBF7C0FD9B
:104910001020FBF7D3FD0120FCF7EFFC0121042060
:10492000FCF7C2FD01210820FCF7BEFD012110208B
:10493000FCF7BAFD0121C802FCF7B6FD01210846CB
:10494000FCF7BFFD01210220FCF7BBFD0121042083
:10495000FCF7B7FD10BD10B54FF48030FCF753FCE9
:10496000FCF790FC0449087008460078012801D142
:10497000FCF7C3FC10BD0000D400002010B50021DE
:104980004FF00060FCF7CAFA4FF4A060FCF70FFA92
:104990001E203F4908700220487088700120C870AE
:1049A0000846FCF70AFA1D203949087002204870B1
:1049B00001208870C8700846FCF7FFF91C203449B4
:1049C000087002204870002088700120C8700846D6
:1049D000FCF7F3F919202E490870022048700020D6
:1049E00088700120C8700846FCF7E7F906202849BE
:1049F00008700220487001208870C8700846FCF7D3
:104A0000DCF9072022490870012048708870C870BE
:104A10000846FCF7D2F90A201D49087003204870A7
:104A200001208870C8700846FCF7C7F903201849B0
:104A3000087001204870002088700120C870084666
:104A4000FCF7BBF9252012490870012048700020AE
:104A500088700120C8700846FCF7AFF926200C4981
:104A6000087001204870002088700120C870084636
:104A7000FCF7A3F9272006490870012048700020A0
:104A800088700120C8700846FCF797F910BD000037
:104A9000D500002010B5B84A118800BFB64A128868
:104AA00044F620631A44521A92FBF3F403FB1422D7
:104AB0008242F3DB10BD01B50098C008009002E00F
:104AC0000098401E009000980028F9D108BDAB481E
:104AD000C06880F00400A949C860704710B504465A
:104AE00007E0C820FFF7D6FF641EFFF7F0FFFCF7D2
:104AF00006F9002CF5D110BD08B50420ADF8000072
:104B000010208DF8030003208DF8020069469B48B1
:104B1000FBF7BEFF04219948FCF766F808BD08B50D
:104B20000420ADF8000014208DF8030003208DF858
:104B3000020069469148FBF7ABFF04218F48FCF760
:104B400053F808BD1CB501210220FCF7A6F802208D
:104B5000009000208DF804000C208DF80500012045
:104B60008DF806006846FBF701FC00210846FCF7BB
:104B700094F80120009000208DF804000C208DF89E
:104B8000050001208DF806006846FBF7EFFB0421C5
:104B90000220FCF782F81020009000208DF804001D
:104BA0000C208DF8050001208DF806006846FBF703
:104BB000DDFB1CBD08B54FF41940ADF80000102016
:104BC0008DF8030003208DF8020069466C48FBF75E
:104BD0005FFF40F2FD30ADF8000010208DF80300BB
:104BE00003208DF8020069466648FBF751FF4FF439
:104BF0003870ADF8000010208DF8030003208DF808
:104C0000020069465D48FBF743FF1220ADF8000043
:104C100048208DF8030069465848FBF739FF4FF4E8
:104C20000050ADF8000010208DF8030003208DF82F
:104C3000020069465148FBF72BFF0120ADF8000048
:104C400004208DF8030069464D48FBF721FF4FF41F
:104C50008040ADF8000004208DF803006946494803
:104C6000FBF716FF4BF20200ADF8000003208DF8B1
:104C7000020010208DF8030069464248FBF708FF48
:104C800008BD0EB544F62060ADF804002720ADF84D
:104C900000000020ADF80600ADF802006946364875
:104CA0002438FCF7DAFDC820ADF804002720ADF861
:104CB00000000020ADF80600ADF802006946324859
:104CC000FCF7CBFD4FF4FA60ADF804002720ADF8F7
:104CD00000000020ADF80600ADF8020069464FF074
:104CE0008040FCF7BAFD4FF4FA60ADF804002720CD
:104CF000ADF800000020ADF80600ADF802006946EE
:104D00002248FCF7AAFD00212048FDF72CF80021DD
:104D10004FF08040FDF727F801211B48FDF723F8ED
:104D2000012115482438FDF71EF801211748FDF729
:104D3000E8FA01218807FDF7E4FA01211248FDF79E
:104D4000E0FA01210C482438FDF7DBFA0122114674
:104D50000E48FDF723F8012211469007FDF71EF8D3
:104D6000012211460848FDF719F8012211460248B0
:104D70002438FDF713F80EBD240800400010014050
:104D800000080140000C014000040040002C0140DC
:104D9000704770477047704770477047704770475B
:104DA00010B501F03BFDFA480068401CF849086066
:104DB00010BD70477047704710B500240120FCF704
:104DC00065FC00287AD00120FCF770FCFCF730FC71
:104DD000F04800883B2808DBEF480088401CEE497B
:104DE00008800020EB49088009E0EA480088401C60
:104DF000E8490880E9480088401CE8490880E648FE
:104E00000088B0F5B46F12D1E248008878B9E44860
:104E1000408860B10020E2494880084640793D283A
:104E200003DA042048803D204871FEF7E4F9DA48AF
:104E30000088B0F5EB6F0AD1D648008838B9D84859
:104E4000408820B10020D6494880FEF7D4F9D348E5
:104E5000008840F28A21884203DBFCF708F8FCF75F
:104E600064F8D048007838B10020CE49087020217D
:104E7000CD48FBF7BBFE06E00120CA49087020219F
:104E8000C948FBF7B1FEC948007838B9C84800786E
:104E9000012803D1C748816F3C208847C648007865
:104EA00001280BD1C549486F8047C548007828B90B
:104EB000C44AB2F81500C14A916F884710BD7047C7
:104EC000704710B50246C04890F8230000283DD036
:104ED000002117E0BD4810F821001478A0420FD13E
:104EE000BA4800EB810040785478A04208D1B74816
:104EF00000EB810080789478A04201D1002010BDA1
:104F0000481CC1B23229E5DB002108E0AF4800EBC4
:104F10008100407808B90B4603E0481CC1B2322931
:104F2000F4DB00BF1078A94C04F82300507804EBA0
:104F3000830460709078A54C04EB8304A070A248B1
:104F400090F82300A14C04EB8304E0700120D6E725
:104F500010B50120FBF780FA00287DD001219C4884
:104F6000FBF728FE002878D120218F48FBF73CFE74
:104F700098480078002870D00A20FDF7E5FC964993
:104F8000964A1278885495490978C1EBC101944A30
:104F9000881894490978FDF766FE90480078C0EBC0
:104FA000C0008F490844407800285ED00F20FDF7EC
:104FB000CBFC00F40070002857D188490978C1EB78
:104FC000C101874A8818FFF77CFF00284DD00020D8
:104FD0007249088081490978C1EBC101804A88186B
:104FE000FEF792FD7D4A1278C2EBC2027C4BD018CC
:104FF0007D4A51688847794A1278C2EBC202784BE1
:10500000D018794AD1688847744A1278C2EBC20234
:10501000734BD018744A51698847704A1278C2EBB2
:10502000C2026F4BD018704A116A88476B490978E1
:10503000C1EBC1016A4A8818FEF782FD6748007813
:10504000401C6649087008460078182190FBF1F270
:1050500001FB1200614901E012E00EE008705A48BD
:10506000807D10B11020FBF7E0F901215848FBF7D3
:10507000A1FD10B90720FDF74FFE0120FBF7FDF958
:1050800010BD10B559480078062805D1FDF77AFE05
:105090000120FBF7F2F922E054480078072807D1F5
:1050A00053480078FDF78DFE0120FBF7E6F916E086
:1050B0004E480078032812D04C48007804280ED0BF
:1050C0004A48007805280AD14948017849480068CB
:1050D000FDF79DFE484908700120FBF7CEF900203E
:1050E000424908700220FBF7C8F910BD10B5042032
:1050F000FBF7B2F910B10420FBF7BFF910BD10B5F2
:105100000820FBF7A9F910B10820FBF7B6F910BD8C
:1051100010B51020FBF7A0F958B101E0FEF7DCFC58
:10512000364800782D4909788842F7D11020FBF7DE
:10513000A4F910BD704770477047704770477047BB
:1051400070477047704770477047704710B54020F0
:10515000FBF782F910B14020FBF78FF98020FBF7B5
:105160007BF910B18020FBF788F94FF48070FBF7D2
:1051700073F918B14FF48070FBF77FF94FF40070AA
:10518000FBF76AF918B14FF40070FBF776F910BD20
:10519000E4000020CA000020C8000020CC0000204D
:1051A00050040020E9000020000C0140740300209E
:1051B000EC00002084020020ED000020FC01002013
:1051C000F90100207C0C0020240400208805002028
:1051D000000801405400002088040020DE00002068
:1051E000E00400202A0000201803002051000020C5
:1051F000500000204C00002052000020E000002061
:10520000704710B50121DA48FDF77EF888B1012119
:10521000D748FDF78AF8D7480078012809D1D64841
:10522000008840F40040D44908800021D048FCF7B1
:105230009AFD10BD704710B50221CD48FDF775F8F5
:1052400010BD10B501218807FDF75EF848B30121B4
:105250008807FDF76AF8C948007878B9C848007827
:1052600001281ED1C748008840F40040C549088085
:1052700000214FF08040FCF776FD12E0C248007834
:10528000012803D0C148007801280AD1C04800880D
:1052900040F40040BE49088000214FF08040FCF7F8
:1052A00062FD10BD10B500240121BA48FDF72CF8AD
:1052B000002877D00121B748FDF737F800BF6AE032
:1052C00004EB840000EBC400B34901EB800080795B
:1052D00001280FD104EB840000EBC40001EB800037
:1052E0000089401C04EB840101EBC401AA4A02EBD3
:1052F0008101088104EB840000EBC400A64901EBA6
:105300008000C07901280FD104EB840000EBC400B9
:1053100001EB80004089401C04EB840101EBC401D7
:105320009D4A02EB8101488104EB840000EBC4003C
:10533000994901EB8000807C01280FD104EB8400A7
:1053400000EBC40001EB80004069401C04EB8401C9
:1053500001EBC401904A02EB8101486104EB840037
:1053600000EBC4008C4901EB800090F8220001287A
:105370000FD104EB840000EBC40001EB8000406A15
:10538000401C04EB840101EBC401834A02EB810160
:105390004862601CC4B2202C92DB8048007E072843
:1053A00028D200E039E0DFE800F0040D1115191DE6
:1053B00021007A4890F82200012802D178494868F3
:1053C000804720E07649C86880471CE074494869F6
:1053D000804718E07249C869804714E07049486AFC
:1053E000804710E06E49C86A80470CE06C49486B02
:1053F000804708E0694890F82200012802D16849F6
:105400004868804700BF00BF66480078012804D183
:1054100065480068401C6449086010BD10B5012152
:105420006248FCF782FF5D4890F82300E8B1002451
:1054300019E05F4800EB8400407890B15C4800EBD5
:105440008400C078401E5A4901EB8401C870584856
:1054500000EB8400C07820B90020554901EB84019D
:105460004870601CC4B2322CE3DB10BD704770473B
:10547000704770477047704710B54E48007810B9B4
:105480004D4801F080F93B480078012806D14B488F
:10549000007818B94A48C16D4748884710BD10B513
:1054A00044480078012802D1464801F06CF931489F
:1054B0000078012807D141480078012803D14048ED
:1054C000C16D4048884710BD10B52C48007840B9E0
:1054D0002B48007801280FD13B48016F3B48884793
:1054E0000AE029480078012803D0284800780128DC
:1054F00002D1364809F0C0FF10BD10B54FF48060EE
:10550000FAF7AAFF18B14FF48060FAF7B6FF4FF42C
:105510000060FAF7A1FF18B14FF40060FAF7ADFF91
:105520004FF48050FAF798FF18B14FF48050FAF713
:10553000A4FF4FF40050FAF78FFF18B14FF400505A
:10554000FAF79BFF4FF48040FAF786FF18B14FF44B
:105550008040FAF792FF4FF40040FAF77DFF18B150
:105560004FF40040FAF789FF10BD70477047000004
:10557000002C0140ED0000207A020020740300207E
:10558000EC00002000030020F0000020F1000020CB
:105590001C04002000040040CC350020240400201E
:1055A000BC010020F2000020200400200008004080
:1055B00088050020EE00002000380140EF000020A8
:1055C000FC0100200044004084020020004800400C
:1055D0000021421C12B1834A904213D10022824B17
:1055E0001A70824B1A70824B1A700122814B1A700A
:1055F0000022814B1A70814B1A70814B1A70814BBB
:105600001A7070474FF47A72B0FBF2F302FB130288
:105610006423B2FBF3F2D1B2092971D2DFE801F0C1
:1056200005192D455C71879FB60000226E4B1A70DC
:105630006E4B1A706E4B1A7001226E4B1A7000225C
:105640006D4B1A706D4B1A706D4B1A706D4B1A7052
:10565000C5E00022644B1A70644B1A70644B1A70D8
:10566000644B1A700122644B1A700022634B1A704B
:10567000634B1A70634B1A70B1E000225A4B1A70D8
:1056800001225A4B1A700022594B1A700122594BB1
:105690001A700022584B1A70584B1A700122584B3E
:1056A0001A700022574B1A7099E001224E4B1A7063
:1056B0004E4B1A7000224E4B1A7001224D4B1A703D
:1056C00000224D4B1A704D4B1A7001224C4B1A7030
:1056D00000224C4B1A7082E00022434B1A70434B5D
:1056E0001A700122424B1A70424B1A700022424B30
:1056F0001A70424B1A70424B1A70424B1A706EE08D
:1057000059E00022384B1A70384B1A700122384B7E
:105710001A700022374B1A700122374B1A70002280
:10572000364B1A70364B1A70364B1A7057E00022FF
:105730002D4B1A7001222D4B1A7000222C4B1A701F
:1057400001222C4B1A7000222B4B1A7001222B4B7A
:105750001A7000222A4B1A702A4B1A703FE001225D
:10576000214B1A70214B1A700022214B1A70012212
:10577000204B1A700022204B1A7001221F4B1A7006
:1057800000221F4B1A701F4B1A7028E00022164B84
:105790001A70164B1A70164B1A700122154B1A709C
:1057A0000022154B1A70154B1A70154B1A700122F6
:1057B000144B1A7013E000220B4B1A700B4B1A702B
:1057C0000B4B1A7001220B4B1A7000220A4B1A70F5
:1057D0000A4B1A700A4B1A700A4B1A7000BF00BFAE
:1057E00000BF0EE778563412EB000020EC000020DA
:1057F000ED000020EE000020EF000020F00000206F
:10580000F1000020F20000202DE9F04706460D4689
:1058100090461F46DDF820A04FF000091DB1012D74
:1058200001DBF72D02DD4FF002095DE0AE480570A7
:105830000A2F24D2DFE807F005080B0E1114171AFF
:105840001D204FF496641AE04FF4166417E04FF4ED
:10585000965414E04FF4165411E04FF461540EE0E6
:105860004FF496440BE04FF4164408E04DF6C02484
:1058700005E04FF4614402E04FF4E13400BF00BFA3
:1058800006BB9A489A4908609A489B4908609B4819
:105890009B4908609B489C49086000209B49086020
:1058A0009B489C4908609C489C4908609C489D49CD
:1058B00008605346224641468B48007800F068FC59
:1058C000814602E04FF0020900BF00BFB9F1000FAE
:1058D0000AD100F0F3FD10B94FF0030904E092483B
:1058E00006700120914908704846BDE8F0872DE90F
:1058F000F04105460E46002D3ADD7F2D38DC00F0E4
:10590000FDFDF6B1002412E0894800EBC4004068B8
:1059100028B1874800EBC4004068B04206D18448F3
:1059200000F8345000EBC400466002E0641C102C08
:10593000EADB00BF102C01D0002000E00420074665
:1059400013E000240DE07A4810F83400A84207D193
:105950000020774901F8340001EBC401486002E0FF
:10596000641C102CEFDB00BF002700F0C5FD00E039
:1059700002273846BDE8F08110B500246B48007856
:10598000012806D16148006820B16048006880475E
:1059900000E00624204610BD10B5002463480078BE
:1059A000012806D152480068804700205F490870EE
:1059B00000E00624204610BD10B55C48007838B9D8
:1059C0004D4800688047012058490870002406E0CF
:1059D00056480078012801D1002400E00624204622
:1059E00010BD38B500255148007808B1062038BDF3
:1059F000684600F070FD012874D19DF8000030B1B8
:105A0000012805D0022818D003286AD168E068E090
:105A1000484A494949483C4B1B68984705465DB987
:105A20004648007830490978884202D043480078D7
:105A300010B9022000F047FD53E03F4800680078AD
:105A40003F49087001203F490870002417E038489A
:105A500010F8340000B914E0354810F83400384923
:105A6000097888420AD1324800EBC40031494268C3
:105A70003148006890473349087002E0641C102CDC
:105A8000E5DB00BF2F480078C8B100202949088015
:105A90002B48007840F08002084601880088401CAE
:105AA000244B18802448006842542648027818463F
:105AB00001880088401C18801F48006842541A481A
:105AC0000078012800D100BF1A4802881A480168EE
:105AD000054800780A4B1B689847054601E001E03D
